{
  "_format": "hh-sol-artifact-1",
  "contractName": "BuilderContract",
  "sourceName": "contracts/BuilderContract.sol",
  "abi": [
    {
      "inputs": [],
      "stateMutability": "nonpayable",
      "type": "constructor"
    },
    {
      "anonymous": false,
      "inputs": [
        {
          "indexed": false,
          "internalType": "address",
          "name": "liker",
          "type": "address"
        },
        {
          "indexed": false,
          "internalType": "address",
          "name": "liked",
          "type": "address"
        }
      ],
      "name": "Liked",
      "type": "event"
    },
    {
      "anonymous": false,
      "inputs": [
        {
          "indexed": false,
          "internalType": "address",
          "name": "user1",
          "type": "address"
        },
        {
          "indexed": false,
          "internalType": "address",
          "name": "user2",
          "type": "address"
        }
      ],
      "name": "Matched",
      "type": "event"
    },
    {
      "anonymous": false,
      "inputs": [
        {
          "indexed": false,
          "internalType": "address",
          "name": "user",
          "type": "address"
        }
      ],
      "name": "Registered",
      "type": "event"
    },
    {
      "anonymous": false,
      "inputs": [
        {
          "indexed": false,
          "internalType": "address",
          "name": "user",
          "type": "address"
        },
        {
          "indexed": false,
          "internalType": "uint256",
          "name": "amount",
          "type": "uint256"
        }
      ],
      "name": "Withdrawn",
      "type": "event"
    },
    {
      "inputs": [
        {
          "internalType": "address",
          "name": "_user1",
          "type": "address"
        },
        {
          "internalType": "address",
          "name": "_user2",
          "type": "address"
        }
      ],
      "name": "checkMatch",
      "outputs": [],
      "stateMutability": "nonpayable",
      "type": "function"
    },
    {
      "inputs": [],
      "name": "contractBalance",
      "outputs": [
        {
          "internalType": "uint256",
          "name": "",
          "type": "uint256"
        }
      ],
      "stateMutability": "view",
      "type": "function"
    },
    {
      "inputs": [],
      "name": "feePercentage",
      "outputs": [
        {
          "internalType": "uint256",
          "name": "",
          "type": "uint256"
        }
      ],
      "stateMutability": "view",
      "type": "function"
    },
    {
      "inputs": [],
      "name": "getContractBalance",
      "outputs": [
        {
          "internalType": "uint256",
          "name": "",
          "type": "uint256"
        }
      ],
      "stateMutability": "view",
      "type": "function"
    },
    {
      "inputs": [],
      "name": "getRegisteredUsers",
      "outputs": [
        {
          "internalType": "address[]",
          "name": "",
          "type": "address[]"
        }
      ],
      "stateMutability": "view",
      "type": "function"
    },
    {
      "inputs": [
        {
          "internalType": "address",
          "name": "_likedUser",
          "type": "address"
        }
      ],
      "name": "like",
      "outputs": [],
      "stateMutability": "payable",
      "type": "function"
    },
    {
      "inputs": [],
      "name": "likeFee",
      "outputs": [
        {
          "internalType": "uint256",
          "name": "",
          "type": "uint256"
        }
      ],
      "stateMutability": "view",
      "type": "function"
    },
    {
      "inputs": [
        {
          "internalType": "address",
          "name": "",
          "type": "address"
        },
        {
          "internalType": "address",
          "name": "",
          "type": "address"
        }
      ],
      "name": "likes",
      "outputs": [
        {
          "internalType": "bool",
          "name": "",
          "type": "bool"
        }
      ],
      "stateMutability": "view",
      "type": "function"
    },
    {
      "inputs": [],
      "name": "owner",
      "outputs": [
        {
          "internalType": "address",
          "name": "",
          "type": "address"
        }
      ],
      "stateMutability": "view",
      "type": "function"
    },
    {
      "inputs": [],
      "name": "register",
      "outputs": [],
      "stateMutability": "nonpayable",
      "type": "function"
    },
    {
      "inputs": [
        {
          "internalType": "uint256",
          "name": "",
          "type": "uint256"
        }
      ],
      "name": "registeredUsers",
      "outputs": [
        {
          "internalType": "address",
          "name": "",
          "type": "address"
        }
      ],
      "stateMutability": "view",
      "type": "function"
    },
    {
      "inputs": [
        {
          "internalType": "address",
          "name": "",
          "type": "address"
        }
      ],
      "name": "stakes",
      "outputs": [
        {
          "internalType": "uint256",
          "name": "",
          "type": "uint256"
        }
      ],
      "stateMutability": "view",
      "type": "function"
    },
    {
      "inputs": [
        {
          "internalType": "address",
          "name": "",
          "type": "address"
        }
      ],
      "name": "users",
      "outputs": [
        {
          "internalType": "address",
          "name": "userAddress",
          "type": "address"
        },
        {
          "internalType": "bool",
          "name": "isRegistered",
          "type": "bool"
        }
      ],
      "stateMutability": "view",
      "type": "function"
    },
    {
      "inputs": [],
      "name": "withdrawContractBalance",
      "outputs": [],
      "stateMutability": "nonpayable",
      "type": "function"
    }
  ],
  "bytecode": "0x6080604052655af3107a4000600555600a600655600060075534801561002457600080fd5b50336000806101000a81548173ffffffffffffffffffffffffffffffffffffffff021916908373ffffffffffffffffffffffffffffffffffffffff1602179055506117e5806100746000396000f3fe6080604052600436106100dd5760003560e01c80638b7afe2e1161007f578063a87430ba11610059578063a87430ba146102b2578063bab8758c146102f0578063bfab3db914610319578063e465c46514610330576100dd565b80638b7afe2e146102315780638da5cb5b1461025c578063a001ecdd14610287576100dd565b80631aa3a008116100bb5780631aa3a008146101875780636f9fb98a1461019e5780637073c072146101c95780637259e0f8146101f4576100dd565b8063027cfe39146100e25780630f14fbe01461011f57806316934fc41461014a575b600080fd5b3480156100ee57600080fd5b5061010960048036038101906101049190611096565b61034c565b60405161011691906110f1565b60405180910390f35b34801561012b57600080fd5b5061013461037b565b6040516101419190611125565b60405180910390f35b34801561015657600080fd5b50610171600480360381019061016c9190611140565b610381565b60405161017e9190611125565b60405180910390f35b34801561019357600080fd5b5061019c610399565b005b3480156101aa57600080fd5b506101b361059c565b6040516101c09190611125565b60405180910390f35b3480156101d557600080fd5b506101de6105a6565b6040516101eb919061122b565b60405180910390f35b34801561020057600080fd5b5061021b60048036038101906102169190611279565b610634565b60405161022891906112b5565b60405180910390f35b34801561023d57600080fd5b50610246610673565b6040516102539190611125565b60405180910390f35b34801561026857600080fd5b50610271610679565b60405161027e91906112b5565b60405180910390f35b34801561029357600080fd5b5061029c61069d565b6040516102a99190611125565b60405180910390f35b3480156102be57600080fd5b506102d960048036038101906102d49190611140565b6106a3565b6040516102e79291906112d0565b60405180910390f35b3480156102fc57600080fd5b5061031760048036038101906103129190611096565b6106f4565b005b34801561032557600080fd5b5061032e610b67565b005b61034a60048036038101906103459190611140565b610cc7565b005b60036020528160005260406000206020528060005260406000206000915091509054906101000a900460ff1681565b60055481565b60046020528060005260406000206000915090505481565b600260003373ffffffffffffffffffffffffffffffffffffffff1673ffffffffffffffffffffffffffffffffffffffff16815260200190815260200160002060000160149054906101000a900460ff1615610429576040517f08c379a000000000000000000000000000000000000000000000000000000000815260040161042090611356565b60405180910390fd5b60405180604001604052803373ffffffffffffffffffffffffffffffffffffffff16815260200160011515815250600260003373ffffffffffffffffffffffffffffffffffffffff1673ffffffffffffffffffffffffffffffffffffffff16815260200190815260200160002060008201518160000160006101000a81548173ffffffffffffffffffffffffffffffffffffffff021916908373ffffffffffffffffffffffffffffffffffffffff16021790555060208201518160000160146101000a81548160ff0219169083151502179055509050506001339080600181540180825580915050600190039060005260206000200160009091909190916101000a81548173ffffffffffffffffffffffffffffffffffffffff021916908373ffffffffffffffffffffffffffffffffffffffff1602179055507f2d3734a8e47ac8316e500ac231c90a6e1848ca2285f40d07eaa52005e4b3a0e93360405161059291906112b5565b60405180910390a1565b6000600754905090565b6060600180548060200260200160405190810160405280929190818152602001828054801561062a57602002820191906000526020600020905b8160009054906101000a900473ffffffffffffffffffffffffffffffffffffffff1673ffffffffffffffffffffffffffffffffffffffff16815260200190600101908083116105e0575b5050505050905090565b6001818154811061064457600080fd5b906000526020600020016000915054906101000a900473ffffffffffffffffffffffffffffffffffffffff1681565b60075481565b60008054906101000a900473ffffffffffffffffffffffffffffffffffffffff1681565b60065481565b60026020528060005260406000206000915090508060000160009054906101000a900473ffffffffffffffffffffffffffffffffffffffff16908060000160149054906101000a900460ff16905082565b600260008373ffffffffffffffffffffffffffffffffffffffff1673ffffffffffffffffffffffffffffffffffffffff16815260200190815260200160002060000160149054906101000a900460ff16801561079c5750600260008273ffffffffffffffffffffffffffffffffffffffff1673ffffffffffffffffffffffffffffffffffffffff16815260200190815260200160002060000160149054906101000a900460ff165b6107db576040517f08c379a00000000000000000000000000000000000000000000000000000000081526004016107d2906113c2565b60405180910390fd5b600360008373ffffffffffffffffffffffffffffffffffffffff1673ffffffffffffffffffffffffffffffffffffffff16815260200190815260200160002060008273ffffffffffffffffffffffffffffffffffffffff1673ffffffffffffffffffffffffffffffffffffffff16815260200190815260200160002060009054906101000a900460ff1680156108f75750600360008273ffffffffffffffffffffffffffffffffffffffff1673ffffffffffffffffffffffffffffffffffffffff16815260200190815260200160002060008373ffffffffffffffffffffffffffffffffffffffff1673ffffffffffffffffffffffffffffffffffffffff16815260200190815260200160002060009054906101000a900460ff165b15610b63576000600460008473ffffffffffffffffffffffffffffffffffffffff1673ffffffffffffffffffffffffffffffffffffffff1681526020019081526020016000205490506000600460008473ffffffffffffffffffffffffffffffffffffffff1673ffffffffffffffffffffffffffffffffffffffff168152602001908152602001600020549050600081836109929190611411565b905060006064600654836109a69190611445565b6109b091906114b6565b9050600081836109c091906114e7565b90506000600460008973ffffffffffffffffffffffffffffffffffffffff1673ffffffffffffffffffffffffffffffffffffffff168152602001908152602001600020819055506000600460008873ffffffffffffffffffffffffffffffffffffffff1673ffffffffffffffffffffffffffffffffffffffff168152602001908152602001600020819055508260076000828254610a5e91906114e7565b925050819055508160076000828254610a779190611411565b925050819055508673ffffffffffffffffffffffffffffffffffffffff166108fc600283610aa591906114b6565b9081150290604051600060405180830381858888f19350505050158015610ad0573d6000803e3d6000fd5b508573ffffffffffffffffffffffffffffffffffffffff166108fc600283610af891906114b6565b9081150290604051600060405180830381858888f19350505050158015610b23573d6000803e3d6000fd5b507fd14ed81663bee87b643b51c1f63fc86cb3b2bba9cc237cf6db5c3d5967a269528787604051610b5592919061151b565b60405180910390a150505050505b5050565b60008054906101000a900473ffffffffffffffffffffffffffffffffffffffff1673ffffffffffffffffffffffffffffffffffffffff163373ffffffffffffffffffffffffffffffffffffffff1614610bf5576040517f08c379a0000000000000000000000000000000000000000000000000000000008152600401610bec906115b6565b60405180910390fd5b60006007549050600060078190555060008054906101000a900473ffffffffffffffffffffffffffffffffffffffff1673ffffffffffffffffffffffffffffffffffffffff166108fc829081150290604051600060405180830381858888f19350505050158015610c6a573d6000803e3d6000fd5b507f7084f5476618d8e60b11ef0d7d3f06914655adb8793e28ff7f018d4c76d505d560008054906101000a900473ffffffffffffffffffffffffffffffffffffffff1682604051610cbc9291906115d6565b60405180910390a150565b600260003373ffffffffffffffffffffffffffffffffffffffff1673ffffffffffffffffffffffffffffffffffffffff16815260200190815260200160002060000160149054906101000a900460ff16610d56576040517f08c379a0000000000000000000000000000000000000000000000000000000008152600401610d4d9061164b565b60405180910390fd5b6005543414610d9a576040517f08c379a0000000000000000000000000000000000000000000000000000000008152600401610d91906116b7565b60405180910390fd5b600260008273ffffffffffffffffffffffffffffffffffffffff1673ffffffffffffffffffffffffffffffffffffffff16815260200190815260200160002060000160149054906101000a900460ff16610e29576040517f08c379a0000000000000000000000000000000000000000000000000000000008152600401610e2090611723565b60405180910390fd5b600360003373ffffffffffffffffffffffffffffffffffffffff1673ffffffffffffffffffffffffffffffffffffffff16815260200190815260200160002060008273ffffffffffffffffffffffffffffffffffffffff1673ffffffffffffffffffffffffffffffffffffffff16815260200190815260200160002060009054906101000a900460ff1615610ef3576040517f08c379a0000000000000000000000000000000000000000000000000000000008152600401610eea9061178f565b60405180910390fd5b6001600360003373ffffffffffffffffffffffffffffffffffffffff1673ffffffffffffffffffffffffffffffffffffffff16815260200190815260200160002060008373ffffffffffffffffffffffffffffffffffffffff1673ffffffffffffffffffffffffffffffffffffffff16815260200190815260200160002060006101000a81548160ff02191690831515021790555034600460003373ffffffffffffffffffffffffffffffffffffffff1673ffffffffffffffffffffffffffffffffffffffff1681526020019081526020016000206000828254610fd79190611411565b925050819055503460076000828254610ff09190611411565b925050819055507f51f8aa0e952472289f1c1c1a4081a55320ec74ba88d405c3f5d4962730478091338260405161102892919061151b565b60405180910390a150565b600080fd5b600073ffffffffffffffffffffffffffffffffffffffff82169050919050565b600061106382611038565b9050919050565b61107381611058565b811461107e57600080fd5b50565b6000813590506110908161106a565b92915050565b600080604083850312156110ad576110ac611033565b5b60006110bb85828601611081565b92505060206110cc85828601611081565b9150509250929050565b60008115159050919050565b6110eb816110d6565b82525050565b600060208201905061110660008301846110e2565b92915050565b6000819050919050565b61111f8161110c565b82525050565b600060208201905061113a6000830184611116565b92915050565b60006020828403121561115657611155611033565b5b600061116484828501611081565b91505092915050565b600081519050919050565b600082825260208201905092915050565b6000819050602082019050919050565b6111a281611058565b82525050565b60006111b48383611199565b60208301905092915050565b6000602082019050919050565b60006111d88261116d565b6111e28185611178565b93506111ed83611189565b8060005b8381101561121e57815161120588826111a8565b9750611210836111c0565b9250506001810190506111f1565b5085935050505092915050565b6000602082019050818103600083015261124581846111cd565b905092915050565b6112568161110c565b811461126157600080fd5b50565b6000813590506112738161124d565b92915050565b60006020828403121561128f5761128e611033565b5b600061129d84828501611264565b91505092915050565b6112af81611058565b82525050565b60006020820190506112ca60008301846112a6565b92915050565b60006040820190506112e560008301856112a6565b6112f260208301846110e2565b9392505050565b600082825260208201905092915050565b7f5573657220616c72656164792072656769737465726564000000000000000000600082015250565b60006113406017836112f9565b915061134b8261130a565b602082019050919050565b6000602082019050818103600083015261136f81611333565b9050919050565b7f426f7468207573657273206d7573742062652072656769737465726564000000600082015250565b60006113ac601d836112f9565b91506113b782611376565b602082019050919050565b600060208201905081810360008301526113db8161139f565b9050919050565b7f4e487b7100000000000000000000000000000000000000000000000000000000600052601160045260246000fd5b600061141c8261110c565b91506114278361110c565b925082820190508082111561143f5761143e6113e2565b5b92915050565b60006114508261110c565b915061145b8361110c565b92508282026114698161110c565b915082820484148315176114805761147f6113e2565b5b5092915050565b7f4e487b7100000000000000000000000000000000000000000000000000000000600052601260045260246000fd5b60006114c18261110c565b91506114cc8361110c565b9250826114dc576114db611487565b5b828204905092915050565b60006114f28261110c565b91506114fd8361110c565b9250828203905081811115611515576115146113e2565b5b92915050565b600060408201905061153060008301856112a6565b61153d60208301846112a6565b9392505050565b7f4f6e6c7920746865206f776e65722063616e2063616c6c20746869732066756e60008201527f6374696f6e000000000000000000000000000000000000000000000000000000602082015250565b60006115a06025836112f9565b91506115ab82611544565b604082019050919050565b600060208201905081810360008301526115cf81611593565b9050919050565b60006040820190506115eb60008301856112a6565b6115f86020830184611116565b9392505050565b7f55736572206e6f74207265676973746572656400000000000000000000000000600082015250565b60006116356013836112f9565b9150611640826115ff565b602082019050919050565b6000602082019050818103600083015261166481611628565b9050919050565b7f496e636f72726563742066656500000000000000000000000000000000000000600082015250565b60006116a1600d836112f9565b91506116ac8261166b565b602082019050919050565b600060208201905081810360008301526116d081611694565b9050919050565b7f4c696b65642075736572206e6f74207265676973746572656400000000000000600082015250565b600061170d6019836112f9565b9150611718826116d7565b602082019050919050565b6000602082019050818103600083015261173c81611700565b9050919050565b7f416c7265616479206c696b656420746869732075736572000000000000000000600082015250565b60006117796017836112f9565b915061178482611743565b602082019050919050565b600060208201905081810360008301526117a88161176c565b905091905056fea2646970667358221220698bd5b984c3fd2e2a0e3a7884d6e197e4bf3dad210d32f4e51d14380af45ac364736f6c63430008180033",
  "linkReferences": {},
  "deployedLinkReferences": {}
}